:020000040800F2
:10000000008000201906000869060008690600083B
:1000100000000000000000000000000000000000E0
:100020000000000000000000000000006906000859
:1000300000000000000000006906000869060008D2
:1000400069060008690600086906000869060008D4
:1000500069060008690600086906000869060008C4
:1000600069060008690600086906000869060008B4
:1000700069060008690600086906000819020008F8
:100080006906000869060008690600086906000894
:100090006906000869060008690600086906000884
:1000A0006906000869060008690600086906000874
:0C00B000690600086906000869060008DF
:1000BC00054B0648033310B51B1A062B03D9044B0A
:1000CC00002B00D0984710BD3804002038040020C5
:1000DC00000000000648074910B5091A8910CB0F1B
:1000EC005918491003D0044B002B00D0984710BD71
:1000FC0038040020380400200000000010B5074C24
:10010C002378002B09D1FFF7D3FF054B002B02D02E
:10011C00044800E000BF0123237010BD3804002008
:10012C000000000084060008094B10B5002B03D01A
:10013C000849094800E000BF08480368002B02D1B9
:10014C00FFF7C8FF10BD064B002BF9D09847F7E717
:10015C00000000003C040020840600083804002045
:10016C00000000000121234A10B5D3690B43D36171
:10017C008023DB059A6A0F31120C12049A621A68FA
:10018C008A431A601C4ADA621A6AD20408D4D96902
:10019C001A4A0A408021DA61DA6949000A43DA61B5
:1001AC00802380218020DB05DA6989010A43DA612A
:1001BC00196A134A40010A401A62D969114AC324C8
:1001CC000A40DA61196AA40001431962DA68024331
:1001DC000120DA608022D96812020143D9600A49F1
:1001EC000A600A591202120A0A511A6802431A606A
:1001FC0010BDC04600100240FFFFFF00FFFCFFFFD8
:10020C00FF5FFFFFFFF3FFFF00E100E070B580240C
:10021C000125E40523692B4204D000F07FF8236903
:10022C00AB43236170BDC0460121114B1A680A43D0
:10023C001A6058680F4A02405A6018680E4A024009
:10024C001A6018680D4A02401A6058680C4A02403D
:10025C000F205A60DA6A8243DA62186B094A02404C
:10026C001A635A6B8A435A6300229A607047C046DD
:10027C00001002400CB8FF08FFFFF6FEFFFFFBFF6B
:10028C00FFFFC0FFACFEF0FF0C2370B5164E174DF0
:10029C0072681340042B01D0082B02D0144B2B6036
:1002AC0018E00F2174687368F06AC022A40C0C402B
:1002BC00014080205202134002340131400283423B
:1002CC0003D0934201D10B4800E0094800F04CF8F0
:1002DC0044432C607368084A1B061B0FD35C2A68C6
:1002EC00DA402A6070BDC0460010024000000020B9
:1002FC0000127A00006CDC029C060008013801D365
:10030C00C046FBE7704780230349CA691A42FCD0F8
:10031C00014B80B2188570470038014070B59024AD
:10032C002026E405A369064D33432800A361FFF79B
:10033C00E5FFA36A28003343A362FFF7DFFF70BD1C
:10034C0080BB000070B5FF25060020242D06280078
:10035C003040E040083CC0B2FFF7D5FF23002D0A27
:10036C000833F4D170BDC046002243088B4274D3CD
:10037C0003098B425FD3030A8B4244D3030B8B429A
:10038C0028D3030C8B420DD3FF22090212BA030CA3
:10039C008B4202D31212090265D0030B8B4219D384
:1003AC0000E0090AC30B8B4201D3CB03C01A5241A4
:1003BC00830B8B4201D38B03C01A5241430B8B42EC
:1003CC0001D34B03C01A5241030B8B4201D30B03D5
:1003DC00C01A5241C30A8B4201D3CB02C01A5241FC
:1003EC00830A8B4201D38B02C01A5241430A8B42BF
:1003FC0001D34B02C01A5241030A8B4201D30B02A8
:10040C00C01A5241CDD2C3098B4201D3CB01C01AC1
:10041C00524183098B4201D38B01C01A52414309CB
:10042C008B4201D34B01C01A524103098B4201D3B9
:10043C000B01C01A5241C3088B4201D3CB00C01A26
:10044C00524183088B4201D38B00C01A524143089E
:10045C008B4201D34B00C01A5241411A00D20146C3
:10046C00524110467047FFE701B5002000F006F836
:10047C0002BDC0460029F7D076E770477047C046EA
:10048C0010B5010000230022002000F03FF810BD41
:10049C0070B5094B094CE41AA41009D0084AA518E8
:1004AC00AD00ED182B68013C9847043D002CF9D1A8
:1004BC0000F0E8F870BDC046C4060008C806000885
:1004CC00FFFFFF3F70B50D4E0D4D0024AD1BAD1061
:1004DC0005D0A300F35801349847A542F9D100F098
:1004EC00CBF8084E084D0024AD1BAD1005D0A30071
:1004FC00F35801349847A542F9D170BDBC060008E9
:10050C00BC060008BC060008C4060008F8B5444642
:10051C005F4656464D469B462F4BF0B41C68A423B1
:10052C005B000500E0580E00904600284BD0436855
:10053C001F2B0DDC5C1C002D21D102339B00446071
:10054C001E5000203CBC90469946A246AB46F8BDD6
:10055C00224B002B3CD0C820400000E000BF0028FC
:10056C0036D0A42200235200A15843600160A05051
:10057C0040328350043283500124002DDDD09A0088
:10058C0091468144424688214F467A50C4225200FB
:10059C009046804442468739994012688A460A43FD
:1005AC009446424661461160842249465F46520099
:1005BC008F50022DC1D1020055468D32FF32116889
:1005CC000D431560B9E720004D30FF30E050AEE729
:1005DC0001204042B6E7C046B40600080000000007
:1005EC008021094A8902536910B50B43536190224B
:1005FC008021D2051368C9000B431360FFF7B2FDCD
:10060C00FFF78CFEFEE7C046001002400D48854601
:10061C000D480E490E4A002302E0D458C45004334E
:10062C00C4188C42F9D30B4A0B4C002301E0136025
:10063C000432A242FBD3FFF7F7FDFFF743FFFFF7AE
:10064C00CFFFFEE7008000200000002038040020CF
:10065C00C80600083804002054040020FEE70000FF
:10066C00034B10B5002B02D00248FFF709FF10BD59
:10067C00000000009D040008F8B5C046F8BC08BC9A
:10068C009E467047F8B5C046F8BC08BC9E467047FD
:10069C000000000000000000010203040607080926
:1006AC0000000000010203041000002043000000C1
:0806BC006D060008350100087D
:0406C4000901000820
:1006C80000127A0000000000100000200000000066
:1006D80000000000FC02002064030020CC0300207E
:1006E8000000000000000000000000000000000002
:1006F80000000000000000000000000000000000F2
:1007080000000000B806000800000000000000001B
:1007180000000000000000000000000000000000D1
:1007280000000000000000000000000000000000C1
:1007380000000000000000000000000000000000B1
:1007480000000000000000000000000000000000A1
:100758000000000000000000000000000000000091
:100768000000000000000000000000000000000081
:100778000000000000000000010000000000000070
:100788000E33CDAB34126DE6ECDE05000B00000035
:100798000000000000000000000000000000000051
:1007A8000000000000000000000000000000000041
:1007B8000000000000000000000000000000000031
:1007C8000000000000000000000000000000000021
:0400000508000619D0
:00000001FF
